:020000040800F2
:1000000068210020A1010008833500086D34000834
:1000100081350008BF1A0008BD3C00080000000040
:1000200000000000000000000000000009010008BE
:10003000F71A0008000000004D010008B93600085A
:10004000BB010008BB010008BB010008BB010008A0
:10005000BB010008BB010008BB010008BB01000890
:10006000BB010008BB010008BB010008C11A000861
:10007000BB010008BB010008BB010008BB01000870
:10008000BB010008BB010008BB010008BB01000860
:10009000BB010008BB010008BB010008BB01000850
:1000A000BB0100086D370008BB010008BB01000858
:1000B000BB01000879370008BB010008BB0100083C
:1000C000BB010008BB010008BB010008BB01000820
:1000D000BB010008B13C0008BB010008BB010008DF
:1000E000BB010008BB010008BB010008DFF814D009
:1000F00000F0DAFC01F052FB0048004745570008C9
:1001000001F010FB68210020224B19680868B0E854
:10011000F00F80F30988BFF36F8F4FF0000080F37A
:1001200011884EF00D0E7047000000000648006870
:10013000006880F3088862B661B6BFF34F8FBFF3E3
:100140006F8F00DF00BF00BF08ED00E0EFF3098014
:10015000BFF36F8F0F4B1A6820E9F00F106008B5DE
:100160004FF0500080F31188BFF34F8FBFF36F8FB4
:1001700006F01CF84FF0000080F31188BDE808403D
:1001800019680868B0E8F00F80F30988BFF36F8F33
:10019000704700BF18000020EFF305807047000093
:1001A0000648804706480047FEE7FEE7FEE7FEE711
:1001B000FEE7FEE7FEE7FEE7FEE7FEE7253700087D
:1001C000ED000008202A04DB203A21FA02F0002189
:1001D000704721FA02F3D040C2F120029140084357
:1001E0001946704710B5431A934209D283188818EC
:1001F00003E010F8011D03F8011D521EF9D210BDD5
:1002000040EA01039B0703D009E008C9121F08C098
:10021000042AFAD203E011F8013B00F8013B521E18
:10022000F9D210BD30B505462A460B4612F8010B2F
:1002300013F8014B08B1A042F8D01CB1002802D03D
:100240006D1CF1E7284630BD421C10F8011B002947
:10025000FBD1801A704730B504460020034600E009
:100260005B1C934203D2E05CCD5C401BF8D030BDF8
:1002700030B503461D783DB10A4612F8014B1CB15A
:10028000AC42FAD15B1CF5E7181A30BD70B50646D2
:1002900004F020FD046805460A220021304600F0E3
:1002A000CFFA2C6070BD30B480EA010202F0004544
:1002B00030F0004221F0004013D090B1C30DD40DB6
:1002C000C2F31601C0F31600E41A41F4000140F431
:1002D00000027D34914201D3641C00E04900002CEF
:1002E00002DA30BC002070474FF400000023914236
:1002F00001D3891A034340084FEA4101F7D151B1B4
:10030000914202D14FF0004105E002D24FF00101CD
:1003100001E06FF0010103EBC450284430BC00F051
:10032000C7BA2DE9FE4F804681EA0300C00F0C4694
:10033000009021F0004123F00045B8EB0200A941F4
:1003400005D24046214690461C460B46024623F005
:100350000040104347D0270DC7F30A00C3F30A51EA
:100360000290401A019040286BDAC3F3130040F466
:10037000801B0098924620B10023D2EB030A63EB66
:100380000B0B01985946C0F14002504600F0F6F9B7
:1003900006460D4650465946019A00F0FEF910EB0C
:1003A00008006141002487EA115284EAE7731A4386
:1003B00040D0009A62B3019A012A4FEA075215DC35
:1003C000001B61EB02014FF0004202EA0752CDE947
:1003D0000042001C41F5801132462B4600F0AEFA77
:1003E00003B0BDE8F08F40462146F9E7001B61EB02
:1003F0000201001C41F5801300185B412018A2F592
:10040000001747EB030140EAD570B6196D4111E0C2
:100410006D084FEA360645EAC0754FEA0752001BE1
:1004200061EB0201001C41F5801149084FEA3000E0
:100430000019514132462B4603B0BDE8F04F00F0A1
:100440006EBA0098012240000023D0EB020263EB59
:10045000E073009821464FEAE074B8EB000061EBCE
:100460000401E9E783F000435BE781F0004158E7CE
:100470002DE9FE4F81EA030404F0004421F000411D
:1004800000944FF0000B23F0004350EA01045ED0CB
:1004900052EA03045BD0C3F30A54C1F30A552C4457
:1004A000A4F2F3340194A0FB0254C1F3130141F40C
:1004B0008011C3F3130343F4801301FB024400FBD8
:1004C000034E840A970A44EA815447EA8357A4FBFF
:1004D000076802958D0A05FB07854FEA932C04FBFC
:1004E0000C542705029D4FEA065847EA1637B5EB2C
:1004F00008056EEB070C870E920E47EA811742EA59
:100500008312A7FB0201B6EB0B0164EB00042B0D79
:1005100043EA0C335E1844EB1C50DA465146E7FBC5
:100520000201C5F313044FEA0B3343EA14534FEAB5
:100530000432019C43EA0603A4F10C040294009CDB
:10054000CDE900B400F0FAF903B0BDE8F08F002067
:100550000146F9E72DE9F04D81EA030404F0004B70
:1005600021F0004514464FF0000A23F0004150EA04
:10057000050220D054EA01021DD0C5F30A570246F5
:10058000C5F31303C1F31300C1F30A5640F48015F9
:1005900043F48013A7EB0608101BD64608F2FD387B
:1005A00073EB050002D308F1010801E092185B41EA
:1005B000B8F1000F03DA00200146BDE8F08D0020FD
:1005C0004FF48011064684460EE0171B73EB0507B7
:1005D00005D3121B63EB050306434CEA010C4908E3
:1005E0004FEA300092185B4150EA0107EDD152EA20
:1005F000030012D082EA040083EA0501084305D013
:10060000101BAB4106D20122002306E000224FF06E
:10061000004302E06FF0010253101AEB06004CEBAE
:10062000085110EB0A0041EB0B01BDE8F04D00F062
:1006300076B9C10F80EAE0700844CA07962300210A
:1006400000F03FB970B5C1F30A5201F00045002433
:10065000C1F3130140F2FF3341F480119A4201DAF1
:10066000002070BD40F233439A42A2F2334203DCD1
:100670005242FFF7A7FD00E090402C43F1D04042EA
:1006800070BD00F0004230F000400AD0C10D01F50D
:100690006071C0F3160042EA0151C20840071143DD
:1006A000704700200146704701F0004330B421F04C
:1006B000004150EA010206D00A0DA2F56072C1F3B2
:1006C0001301002A02DC30BC00207047440F44EACA
:1006D000C104C100E01830BC00EBC25000F0E8B823
:1006E00010B504F0FBFABDE8104004F051BA30B583
:1006F0000B46014600202022012409E021FA02F5E0
:100700009D4205D303FA02F5491B04FA02F5284479
:10071000151EA2F10102F1DC30BD2DE9F05F0546A6
:10072000002092469B4688460646814640241BE0B0
:100730002846414647462246FFF744FD53465A465F
:10074000C01A914110D311461846224600F016F8FF
:100750002D1A67EB01084F4622460120002100F0C8
:100760000DF817EB00094E41201EA4F10104DFDC57
:10077000484631462A464346BDE8F09F202A04DB1E
:10078000203A00FA02F1002070479140C2F12003A4
:1007900020FA03F3194390407047202A06DBCB1759
:1007A000203A41FA02F043EAE07306E041FA02F32C
:1007B000D040C2F120029140084319467047421EC2
:1007C00012F8013F002BFBD111F8013B02F8013B6D
:1007D000002BF9D17047034611F8012B00F8012BCB
:1007E000002AF9D1184670470246C9B200E0401C01
:1007F0000378002BFBD102E003788B4203D0401E2C
:100800009042F9D2002070470FB400B58DB010A906
:1008100009900B9000914FF0FF300A9000200C904F
:1008200005480690054807906A4609A80F9900F008
:1008300001FD0DB05DF814FB511200086F120008A5
:100840002DE9F04791460F4680460446002614F8ED
:10085000015B2DB100F03AF90068405DC007F6D1A8
:100860002B2D02D02D2D18D0641E4A463946204625
:1008700000F00EFD27B13968A14201D1C7F8008010
:1008800071054FF002040BD54042002803DD04F04F
:1008900021FA0460A007BDE8F08746F48066E4E72B
:1008A0000028F8DA04F016FA04606FF00040F2E76E
:1008B0000029A8BF7047401C490008BF20F0010074
:1008C000704710B4B0FA80FC00FA0CF050EA010452
:1008D00004BF10BC704749B1CCF1200421FA04F4E4
:1008E00011FA0CF118BF012121430843A3EB0C01BD
:1008F000CB1D4FEA00614FEA102042BF002010BC20
:10090000704700EBC35010440029A4BF10BC7047CF
:10091000401C490008BF20F0010010BC704710B512
:10092000141E73F1000408DA401C41F10001921812
:100930005B411A4301D120F0010010BD2DE9F04DBB
:1009400092469B4611B1B1FA81F202E0B0FA80F210
:1009500020329046FFF712FF04460F4640EA0A0095
:1009600041EA0B0153465A46084313D0114653EA55
:10097000010019D0C8F140025046FFF723FC05469C
:100980000E46504659464246FFF7F8FE084305D04A
:10099000012004E020463946BDE8F08D00200543E3
:1009A00046EAE0762C4337430A986305E40AA0EB55
:1009B00008000022FD0A44EA47540A3002D500200C
:1009C0000146E9E7010510196941DDE9084500190B
:1009D0006941BDE8F04DA2E7C1F30A52C1F313012A
:1009E00040F2FF3341F480119A4202DA00200146BE
:1009F000704740F233439A42A2F2334202DC524241
:100A0000FFF7E0BBFFF7BABE30B5041E71F100047A
:100A100004DB4FF00044404264EB0101141E73F10B
:100A2000000405DB1C464FF00043524263EB040315
:100A3000994208BF904230BDAFF3008010B500F07E
:100A40000EF8016919B100220261884701E080684F
:100A50008047AFF30080000010B5AFF3008070B5A1
:100A600000F068FC04680546A4B9202004F000FFEB
:100A7000040011D0094900202C60C4E90001084994
:100A8000A1602073206160610649A06109B100F096
:100A900082FCE061204670BDAFF3008000000000E2
:100AA000590A000800000000064C074D06E0E06807
:100AB00040F0010394E8070098471034AC42F6D3A5
:100AC000FFF718FB2C7700084C77000800487047A8
:100AD000C073000810B50446FFF7F8FF0068005D1A
:100AE00000F0010010BD10B5441A0346944209D22B
:100AF0008418114403E011F8013D04F8013D521E31
:100B0000F9D210BD40EA0104A40703D009E010C9DE
:100B1000121F10C3042AFAD203E011F8014B03F8A4
:100B2000014B521EF9D210BD10B5002200E0521C3C
:100B3000835C8C5CA34201D1002BF8D1D8B2E1B226
:100B4000401A10BD2DE9FF4F1C4681B00021D4E9A9
:100B5000016791464FF0FF358A468846A1696D1CB2
:100B600002988847216A834688470028F6D1BBF15E
:100B7000FF3F0CD026F4C066002F1ADD700615D595
:100B8000BBF12B0F0AD0BBF12D0F0FD104E04FF0BA
:100B9000FF3005B0BDE8F08F46F48066A1696D1C9A
:100BA000029888477F1E8346002F02DDBBF1300F7D
:100BB00003D0B9F1000F2AD025E0A1696D1C46F4DD
:100BC00000767F1E029888478346002F05DDBBF123
:100BD000780F06D0BBF1580F03D0B9F1000F10D039
:100BE00011E0B9F1000F02D0B9F1100F0BD1A169DA
:100BF0006D1C26F400767F1E0298884783461020DD
:100C000000E0082081464FEAE970009017E00A20D2
:100C1000F8E74346AAFB092803FB0980DDF800C07A
:100C20007F1E0AFB0C0112EB0B0A41EBEB78A1696A
:100C300046F4007605F10105029888478346002FA7
:100C400006DD4946584600F0C4FB5FEA000BE0D5DC
:100C5000E16902988847B00502D46FF0010098E777
:100C6000F00718D1700610D57005514605D5002340
:100C7000D1EB030163EB080200E042462068031D4C
:100C800023600068C0E9001205E02068011D2160B2
:100C90000068C0E900A828467BE72DE9FF5F1D46F4
:100CA0004FF0FF3BD5E9014691465F464FF0000803
:100CB000A9697F1C01988847296A824688470028CD
:100CC000F6D1BAF1FF3F0CD024F4C064002E19DD38
:100CD000600614D5BAF12B0F09D0BAF12D0F0ED141
:100CE00003E0584604B0BDE8F09F44F48064A9696D
:100CF0007F1C01988847761E8246002E02DDBAF1DD
:100D0000300F03D0B9F1000F26D032E0A969761E6A
:100D100044F400747F1C019888478246002E05DD4C
:100D2000BAF1780F06D0BAF1580F03D0B9F1000F1D
:100D300010D01EE0B9F1000F02D0B9F1100F18D198
:100D4000A969761E24F400747F1C019888478246A6
:100D5000102002E0082000E00A20814609E008FB9C
:100D60000908A969761E44F400747F1C019888471D
:100D70008246002E05DD4946504600F02AFB002839
:100D8000EDDAE96901988847A00502D46FF0010007
:100D9000A8E7E00725D1600613D5600502D5C8F1A4
:100DA000000000E0404629680A1D2A600968220503
:100DB00001D5087015E0220701D5088011E0086010
:100DC0000FE02868011D29600068210502D580F820
:100DD000008006E0210702D5A0F8008001E0C0F8FD
:100DE000008038467EE72DE9FF5FD2E901A74FF08A
:100DF0000008916999461446DDF838B046460198D6
:100E00008847054659EA0B0005D009E0A169761C20
:100E1000019888470546216A284688470028F5D169
:100E2000681C03D05FEACA7005D015E04FF0FF30B0
:100E300004B0BDE8F09F2068011D2160D0F800805B
:100E40000AE05FEACA7001D108F8015BA169761C6B
:100E50007F1E019888470546002F1ADD681C18D0B0
:100E6000B9F1000F0DD0E81705EBD060421120F06A
:100E70001F0059F822102A1A012090400142E0D1A7
:100E800007E0BBF1000FDCD1216A28468847002823
:100E9000D7D0E16901988847BBF1000F07D1002E38
:100EA00005DD5FEACA7002D1002188F80010A06851
:100EB000B84203DDBBF1000F03D017B16FF00100A2
:100EC000B6E73046B4E700002DE9FF4F087883B05D
:100ED0009946FF2805D0491C2D2804D00024002065
:100EE00008E000200BE00124F9E700EB800003EBB1
:100EF0004000491C0B78FF2BF7D104B1404200237E
:100F00000293147819461D462D2C01D02B2C04D1A8
:100F1000521C2D2C13D000240294AA461478FF2CC6
:100F20000FD00A25A3FB057801FB05814FF0000CCB
:100F300003FB0C11521CE3194AEB0101EEE70124FB
:100F4000EAE7814453EA010002D019F5C87F06DAC6
:100F500003980021C0E9001107B0BDE8F08F00251B
:100F6000AE4E2F46DFF8B882184600F0FCFBCDE904
:100F70000001B9F1000002DAC9F1000400E0044602
:100F80000023A74A1AEB030B42EB045A12E0E007D6
:100F900007D02A46334638464146FFF769FA0746E6
:100FA00088462A46334610461946FFF761FA054639
:100FB0000E466410002CEAD1DDE90001B9F1000F02
:100FC0005A46534606DAFFF7C5FA3A464346FFF754
:100FD000C1FA05E0FFF74CFA3A464346FFF748FAF4
:100FE000029A0AB181F00041039AC2E90001B3E715
:100FF0002DE9FF4F1F468DB0D7E901464FF0FF386E
:101000002E2045464FF000090B90B9696D1C0E98D3
:101010008847396A824688470028F6D1BAF1FF3FEF
:101020000AD024F4D064002E11DDBAF12B0F08D0C1
:10103000BAF12D0F0BD102E0404611B08DE744F418
:101040008064B9696D1C0E9888478246761E694691
:10105000600501D52D2000E02B208DF8000001F166
:10106000010B0DF1200809E0B9696D1C0E98884745
:1010700082460F9844F40074761E0560002E02DD4F
:10108000BAF1300FF0D00B998A453ED144F080047C
:1010900006E00F99681CA9F1010944F40074086086
:1010A000B9696D1C761E0E98884782463028F0D0AC
:1010B0002BE00B998A4505D1200603D444F0800427
:1010C000761E18E0504603F02DFF08B30DF1130112
:1010D000761E44F400748B4508D2AAF130000BF858
:1010E000010B200607D5A9F1010003E0200602D478
:1010F00009F101008146A00502D50F99681C08601E
:10110000B9696D1C0E9888478246002ED1DC53E0E9
:10111000002E51DDBAF1650F02D0BAF1450F4BD167
:10112000A00549D5B9696D1C24F44074761E0E984B
:1011300088478246002E0CDD2B2804D0BAF12D0FF3
:1011400007D144F48074B9696D1C0E9888478246B3
:10115000761EE00501D52D2100E02B2108F8011BAA
:10116000CDF82C8021E00DF12901761E44F40074A5
:1011700088450CD2AAF1300010F0FF0088F800007A
:1011800002D10B99884509D908F1010806E0E0056C
:1011900001D5244801E042F20F708146B9696D1C07
:1011A0000E98884782460F980560002E04DD504651
:1011B00003F0B8FE0028D6D1F9690E988847FF20C1
:1011C0008BF8000088F800000020069007904B463E
:1011D0006A4608A906A8FFF777FEA00502D46FF0BB
:1011E00001002AE714F0240F0AD0E00714D1DDE94A
:1011F00006123868031D3B600068C0E900120BE06E
:10120000DDE90601FFF750FA0146E00704D138682E
:10121000021D3A600068016028460EE70000144095
:101220000000F03FF1D8FFFF02681144137801601D
:1012300018467047D1600449516104491162002188
:101240001161114600F0D4B829120008D50A00082F
:10125000426842B1016811F8013B23B1521EC0E956
:101260000012184670470121C160881E704742680D
:101270005AB1C368016843B983688B4205D0491EDF
:10128000521CC0E90012002070474FF0FF30704739
:101290002DE9F05F82460078002715468B460AF15B
:1012A0000104B946302801D09DB113E014F8010BB8
:1012B0000127782803D0582801D045B10AE00DB1A4
:1012C000102D07D10027102514F8010B02E0082586
:1012D00000E00A250026B0460EE005FB080005FBED
:1012E00006F1012701EB10461FFA80F8B6F5803FA2
:1012F00000D3B94614F8010B294600F06AF800281B
:10130000EBDABBF1000F05D00FB1641E00E05446CC
:10131000CBF80040B9F1000F06D003F0DBFC02214E
:101320000160C81EBDE8F09F48EA0640FAE70000E9
:10133000034870470248001D011F8860001D704768
:10134000E00000202DE9F041074615460E4610202A
:1013500004F08EFA04000AD06760C4E9026500F068
:10136000DDF90168216004600020BDE8F081012002
:10137000FBE700DE2DE9F04117460E46054633B186
:1013800007FB0354E41B2046B047A542FAD1A5F160
:101390000800BDE8F08110B5882004F069FA002843
:1013A00001D00021017010BD802902D808B1017858
:1013B00009B100207047012100F8081B704718B1DF
:1013C00000F10802914201D0002070470021017015
:1013D00070473A2800D2303820F02002412A01D349
:1013E000A2F13700884201D34FF0FF307047000070
:1013F0002DE9F34F8BB04FF0000801F10C000C46C3
:101400004FF0010B46460DF1080A01906269012177
:1014100001989047051E2DD0252D2CD0216A884794
:10142000C0B16269012101989047216A884700286C
:10143000F7D1411E62690198904700E0761CA169CE
:101440000B988847216A88470028F7D1E1690B98F3
:101450008847DBE7A1690B9888470746A84201D176
:10146000761CD3E7E1690B9888477F1C02D1B8F15D
:10147000000F6FD046E1002762693D46394601986A
:1014800090472A2804D162690121019890470125DB
:10149000DFF884926269012101989047A0F1300140
:1014A0000A290AD24F45E5DC07EB870100EB41072B
:1014B000303FDFD445F01005ECE7E90601D46FF0CA
:1014C00000476C280AD04C2814D0682815D06A2808
:1014D0000DD074281CD07A281AD01DE06269012131
:1014E000019890476C2802D045F0040514E045F0BF
:1014F00002050DE045F020050AE06269012101982E
:101500009047682802D045F0080505E045F40065DD
:101510006269012101989047C4E9015765283DD0CF
:1015200019DC58287AD00CDC452837D004DC252873
:1015300026D0412831D131E046282FD047282CD160
:101540002CE05B2877D0612828D063287CD06428E1
:1015500023D15AE0D0E06F2848D008DC66281DD09F
:1015600067281BD0692821D06E2816D127E0702863
:1015700045D0732868D0752847D078280DD14DE024
:10158000A1690B988847054625283FF469AFE169B2
:101590000B9888476D1C3FF46AAFB3E023466A4658
:1015A0006FF001000B99FFF723FD9EE045F040002E
:1015B0006060A80723464FF0000236D43EE0E807FB
:1015C0007FF447AF2068011D21600068290501D51F
:1015D00006701BE7290701D5068017E7A90703D581
:1015E000F117C0E9006111E706600FE745F0400020
:1015F0006060A80723464FF0080216D41EE040F6AC
:101600000E0125EA0100606016E045F040006060D0
:10161000A80723464FF00A0207D40FE045F0400028
:101620006060A80708D5234610226FF001000B99CF
:10163000FFF788FA59E007E0234610226FF0010017
:101640000B99FFF72AFB50E04FF000094F464B463D
:10165000632802D05B2806D040E0E80601D40120D0
:10166000A06001273AE062690121019890475E2855
:1016700005D14FF0010962694946019890472169F7
:1016800039B900210A46534643F82120491C08294C
:10169000FADBB0B3216969B9C11700EBD16253110C
:1016A0000AEB830122F01F02821A01200B6890408E
:1016B00003430B6062690121019890475D28E8D1DE
:1016C000B9F1000F09D00020514651F82020D24333
:1016D00041F82020401C0828F7DB02AB2246009787
:1016E0006FF001000B99FFF77EFB00280CDA401C1D
:1016F00008D1BBF1000F05D04FF0FF300DB0BDE8B1
:10170000F08FFFE74046F9E7E90701D108F101084A
:1017100006444FF0000B79E6CCCCCC0C0048704767
:10172000F40000202DE9F0410646FFF7F7FF804660
:10173000454613E016B1E068B0420ED1206828603B
:10174000D4E90101D8F800708847204603F0D2FFA1
:10175000D8F80000B842EBD100E025462C68002CF8
:10176000E8D1BDE8F0810EB540F23342029200228A
:10177000CDE900221346FFF7E1F803B000BD704742
:101780002DE9F04116461F460C46851B02E028460F
:10179000B847AD1B641EFAD2BDE8F08170B5054CA8
:1017A000054D03E0206820448047241DAC42F9D158
:1017B00070BD00004C7700085877000838B5044623
:1017C0006846AFF300800146204605F0A3FB38BD14
:1017D00070B5044600688168C943C9071CD1816897
:1017E00021F00101816000F0FFFD05460FE000BF20
:1017F00000F0FAFD401B022809D9A06A40F0100051
:10180000A062E06A40F00100E062012070BD206843
:101810008068C043C007EBD0002070BD10B5014602
:10182000406A826A12F0500F05D0006A026BBDE870
:10183000104008461047816A41F4007181620168D6
:101840008968C1F3424107290CD1C16851B9816A45
:1018500021F480718162816AC90403D4816A41F0F4
:101860000101816200F0C6F910BD10B5406A816ABD
:1018700041F040018162C16A41F00401C16200F09F
:10188000D2F910BD10B5406A00F0CCF910BD0000CF
:10189000F8B500260446009600688168C943C90768
:1018A00028D0816841F00101816013481349006824
:1018B000B0FBF1F000E0401E00900028FBD100F0EA
:1018C00093FD054611E000BF00F08EFD401B02288D
:1018D0000BD9A06A40F01000A062E06A40F001005D
:1018E000E06284F824600120F8BD20688068C0436D
:1018F000C007E9D10020F8BD6C00002040420F0075
:101900002DE9F04188B004460DF10C0808460F4659
:10191000FEF79AFC4F4E050006D003461A460021FA
:10192000404605F07CF900E030462A4639460390EF
:1019300002F096FD002548A103A805F093FB0127BE
:1019400008B10125276046A103A805F08BFB4FF0E5
:10195000000810B10225C4F8008043A103A805F0D7
:1019600081FB58B16068FEF78CFE02460B4643A12E
:1019700004F11C0003F03AF90325A76141A1039883
:10198000FEF750FC00285ED00399401A401C5AD044
:1019900051F8043C0496132204AE03A906A8133B95
:1019A00005F080F806A905A802F08AF9059805AAAD
:1019B000A0F10C010B685B1C08D0084604F0ACFFDA
:1019C000304605F067FA059804900EE096420CD078
:1019D0000499034650F8040C51F8042CCDE9000892
:1019E00002904146304605F067F905A805F052FA25
:1019F00006A805F04FFA04A906A805F093FA02F02C
:101A0000AFF9064606A805F045FACEB10498FEF7F0
:101A10003DFCA0F10A0140F2DE32914210D80425CB
:101A20002061FEF706FE01461B48FEF73CFCFEF770
:101A300028FE0022194BFEF774FCFEF703FE6061DE
:101A400004A805F027FA03A805F024FA08B02846F0
:101A5000BDE8F081641B00204C45445F4F4E000000
:101A60004C45445F4F4646004745545F4144435F01
:101A70004156475F564F4C5441474500252E33662B
:101A8000560A00005345545F4144435F53414D5053
:101A90004C455F524154450000401C460000E03F69
:101AA0000021416081614FF47A72026142F2107349
:101AB00093FBF2F2016081604261C1607047FEE712
:101AC000014800F099BA0000F81A002030B590F8EB
:101AD00040500124AC40C56B6C600468636043688F
:101AE000102B036803D099600068C26030BD9A6013
:101AF0000068C16030BD7047F8B50024009490F8CC
:101B000024202546012A12D0012280F824204A6888
:101B10001F23072A0DD20668776B521E02EB820242
:101B200093409F430B6893401F43776319E0022063
:101B3000F8BD06680D2A0AD2376BD21F02EB82026B
:101B400093409F430B6893401F43376309E0F76A54
:101B50000D3A02EB820293409F430B6893401F4370
:101B6000F7620A68072306680A2A0AD3F7680A3A5E
:101B700002EB420293409F438B6893401F43F76000
:101B800008E0376902EB420293409F438B68934021
:101B90001F4337610A68102A01D0112A20D1124B45
:101BA00002689A4217D193681B0219D4936843F4D0
:101BB000000393600968102912D10C490C4A096886
:101BC000B1FBF2F101EB8101490000E0491E0091F7
:101BD0000029FBD104E0816A41F0200181620124E7
:101BE00080F824502046F8BD002401406C000020FD
:101BF00040420F0010B50068074988420AD10748E3
:101C000000F070F906484FF08042C1690901516344
:101C10000121417010BD000000240140A8190020DE
:101C200070000020704770472DE9F0414FF0000729
:101C300004003D467ED0A06A002628B9E66284F8FA
:101C40002460204600F07EF82046FFF7C1FDA16A1F
:101C5000C90600D420B1A06A40F01000A06269E07B
:101C6000A16A21F4885141F00201A1626268E16930
:101C7000E3680A4347EA43010A43A1684FF48077C7
:101C8000B94209D0012907D05FF00001D4F814C08F
:101C9000BCF1010F02D00AE03946F7E7F3B1A36ABD
:101CA00043F02003A362E36A43F00103E362236885
:101CB000D3F804C02CF4694C4CEA010CC3F804C0FE
:101CC00021688B68DFF870C003EA0C0313438B6054
:101CD000A168B9420BD0012909D00CE0DFF85CC043
:101CE000A3690CEB43330B4343F40061DFE7218A24
:101CF0000D05A5F580152168CB6A23F470032B43ED
:101D0000CB62216889680E4B1940914208D1E66286
:101D1000A16A21F0020141F00101A162BDE8F08158
:101D2000A06A20F0020040F01000A062E06A40F0DB
:101D30000100E0620120F1E7FDF7E1FF00E0FFFFB5
:101D4000FE0E1FFF30B505460068174985B0884272
:101D500028D11648816941F4007181618069694622
:101D600000F40070049001200090032001901048BE
:101D700000F056FA104C0F4880212060002060606F
:101D8000C4E90201490021618900C4E90510E0614C
:101D9000204600F0DBF918B17F2108A001F08FFF89
:101DA0002C62656205B030BD002401400010024085
:101DB0000008014008000240F81A00202E2E2F5380
:101DC00072632F73746D3332663178785F68616C3B
:101DD0005F6D73702E6300002DE9F047894604465D
:101DE0003B4900683B4F0E1D9046884201D0B842E7
:101DF00007D1306810F4702F03D001252846BDE8C4
:101E0000F08794F8240001280CD0012084F82400E5
:101E10002046FFF73DFD05004FF0000004D084F898
:101E20002400EBE70220EAE7A16A40F60162914351
:101E300041F48071A1622168B94218D1326812F46C
:101E4000702F14D0A16A41F48011A1623168490554
:101E500005D5A16A21F4005141F48051A162A16A23
:101E6000C9040AD5E16A21F00601E16206E0A26A2E
:101E700022F48012A2624968E9E7E06284F8240053
:101E8000216A15488862216A1448C862216A144888
:101E9000086321686FF0020008602068816841F4DF
:101EA00080718160216843464A464C31206A00F0C7
:101EB0007FF920688168C1F342410729816803D016
:101EC00041F48011816099E741F4A001FAE7000034
:101ED00000240140002801401D1800088518000852
:101EE0006B18000810B5044690F82400012807D0AC
:101EF000012084F824002046FFF76AFC10B10EE0B0
:101F0000022010BD2068816821F480718160206A00
:101F100000F00EF8A16A30B141F04001A162002149
:101F200084F8241010BD21F4885141F00101F5E737
:101F300001680A6822F00E020A6001680A6822F04D
:101F400001020A6090F84020C36B012101FA02F2FD
:101F50005A6080F82110002180F820100846704750
:101F600010B590F821100024022903D004218163C8
:101F700001243DE001680A6822F00E020A6001684F
:101F80000A6822F001020A601A4A0168914201D1EE
:101F9000012121E0174A1432914201D110211BE0A6
:101FA000144A2832914201D1891515E0114A3C3278
:101FB000914201D189140FE00E4A5032914202D170
:101FC0004FF4803108E00B4A6432914202D14FF461
:101FD000801101E04FF08071064A083A51600121FA
:101FE00080F82110002180F82010416B01B1884752
:101FF000204610BD080002402DE9F05FC16B0C685F
:1020000001680B68D0F840C0042202FA0CF2494D76
:10201000DFF824A1494E4A4FDFF828B1DFF828E164
:1020200022422CD05A072AD50A68920603D40A689D
:1020300022F004020A600168A94201D1042219E0D9
:10204000514501D1402215E0B14202D14FF48062E6
:1020500010E0B94202D14FF480420BE0594502D161
:102060004FF4802206E0714502D14FF4800201E076
:102070004FF080622F4908394A60C16A3BE04FF057
:10208000020808FA0CF818EA040F4FF000094FF0A4
:10209000010235D05FEA837832D50B689B0605D400
:1020A0000B6823F00A030B6080F821200168A94225
:1020B00001D1022219E0514501D1202215E0B1429F
:1020C00002D14FF4007210E0B94202D14FF4005235
:1020D0000BE0594502D14FF4003206E0714502D1C0
:1020E0004FF4001201E04FF00072124908394A60C3
:1020F00080F82090816A00291AD0BDE8F05F084777
:10210000082505FA0CF5254212D01B0710D50B68DF
:1021100023F00E030B6090F84010C36B02FA01F13C
:102120005960826380F8212080F82090016BE2E7FB
:10213000BDE8F09F080002401C0002403000024051
:1021400044000240580002406C00024030B548B3E1
:1021500008C8154914221944B1FBF2F18900C16382
:1021600012498163022141771A6843F6F0718A436C
:10217000D0E900142143D0E902452C4321430469EE
:10218000214344692143846921431143196000219B
:1021900041628162C162016341630122427701773A
:1021A000084630BD012030BDF8FFFDBF00000240F1
:1021B00070B5044690F82000002501280CD00120BD
:1021C00084F8200094F821600020012E06D084F8C5
:1021D00020000225284670BD022070BD022684F82A
:1021E0002160A0632068066826F00106066020468C
:1021F000FFF76CFCE06A00282068016802D041F01B
:102200000E0106E021F0040101602068016841F040
:102210000A0101602068016841F001010160D9E70D
:102220002DE9F84FDFF890A100220AF1040B1446C3
:1022300001274FF00F090BF1040E00BF0B6807FADE
:1022400004F52B40AB4274D1DFF870C14E68A6EBA9
:102250000C0866452BD00DDC032E34D005DC36B3DC
:10226000012E19D0022E2FD11BE0112E16D0122EC6
:102270002AD119E0B8F5881F19D006DCB8F5803FDF
:1022800015D0B8F5801F1FD111E0B8F5001F0ED092
:10229000B8F5041F18D10AE0CA6815E0CA68121D13
:1022A00012E0CA6808320FE0CA680C320CE08A6893
:1022B0002AB1012A4FF0080203D0456104E004224C
:1022C00002E0056100E00022FF2B01D8064601E094
:1022D00000F104064FEA840501D9A5F12005D6F8DE
:1022E00000C009FA05F82CEA080C02FA05F54CEAD8
:1022F000050CC6F800C04D68ED0057D5304DAE69ED
:1023000046F00106AE61AD6924F0030605F0010553
:1023100000952C4D06EB050CDCF80850A6074FEA9B
:10232000167809FA08F6B543274EB04202D10026C6
:1023300010E03BE0254EB04201D101260AE0244ED8
:10234000B04201D1022605E0224EB04201D103265F
:1023500000E0042606FA08F62E43CCF808604D6823
:10236000DAF80060ED03554601D51E4300E09E43B8
:102370002E604D68DBF80060AD035D4601D51E435D
:1023800000E09E432E604D68DEF80060ED02754669
:1023900001D51E4300E09E432E604D68AD020E4DF8
:1023A0002E6801D51E4300E09E432E60641C102C55
:1023B000FFF444AFBDE8F88F0004014000001110A5
:1023C000001002400000014000080140000C0140E4
:1023D00000100140001401400C0401400AB10161E9
:1023E00070470904FBE7000001488068704700005F
:1023F00060000020024881680278114481607047C3
:1024000060000020074810B5016841F0100101602C
:10241000032000F0AFF8002000F006F800F03EF8CE
:10242000002010BD0020024000B5014687B0002208
:10243000192000F07FF8192000F070F81348816926
:1024400041F400618161806905A900F40060069093
:10245000684600F0C1F900F0F5F90D490D4AB0FBEE
:10246000F1F10D48491E0260416040F2E73200215F
:10247000C0E90321816000F0F7FB10B1012007B033
:1024800000BD054800F034FCF9E7000000100240F0
:1024900040420F00002C0140681900201D4808B57B
:1024A000816941F001018161806900F001000090C3
:1024B000032000F05FF8002211466FF00B0000F0DF
:1024C00039F8002211466FF00A0000F033F80022BC
:1024D00011466FF0090000F02DF800221146501F40
:1024E00000F028F800221146101F00F023F8002207
:1024F0000F21901E00F01EF800220F21501E00F048
:1025000019F80548416821F0E06141F080614160BF
:1025100008BD0000001002400000014000F01F0252
:10252000012191404009800000F1E020C0F8001135
:1025300070470000F0B40E4B1B680C46C3F3022337
:10254000C3F10705042D00D90425191D072901D25F
:10255000002300E0DB1E012606FA05F1491E21409A
:1025600099409E40761E16403143F0BC01F00AB8F7
:102570000CED00E0064900F0070208684FF6FF0383
:10258000184040EA0220034A1043086070470000E8
:102590000CED00E00000FA052DE9F843054600784F
:1025A000354CC00754D0E0690026C00008D4E0696B
:1025B00040F08050E061E069012600F0805000901A
:1025C0002E480168C90512D40168804641F4807123
:1025D0000160FFF709FF074605E000BFFFF704FFB2
:1025E000C01B642823D8D8F80000C005F6D5206A9F
:1025F00010F4407021D0A98801F4407181421CD0B0
:10260000206A1F49012220F440700A6000220A60FB
:102610002062C00711D0FFF7E7FE074641F2883875
:1026200008E000BFFFF7E0FEC11B414502D90320CF
:10263000BDE8F883206A8007F4D5206A696820F431
:102640004070084320621EB1E06920F08050E061D4
:102650002878800705D56068A96820F440400843C1
:1026600060602878C00605D56068E96820F48000BD
:10267000084360600020DBE700100240007000406B
:10268000400442422DE9F047DFF83C8105460E4602
:10269000D8F8000000F00700B0420CD2D8F80010C3
:1026A00021F007013143C8F80010D8F8000000F00D
:1026B0000700B04263D12878444C800705D5606894
:1026C000A96820F0F000084360602878C00745D072
:1026D0006868012816D02168022816D089070029C9
:1026E0004DDA616821F0030101436160FFF77CFE70
:1026F0006968074641F2883001290FD002298146D6
:1027000019D027E021688903E9E78901E7E700BFDD
:10271000FFF76AFEC11B494501D918E08146606890
:10272000C0F381000128F3D118E000BFFFF75CFE81
:10273000C11B49450BD86068C0F381000228F5D160
:102740000CE000BFFFF750FEC11B494502D9032032
:10275000BDE8F087606810F00C0FF3D1D8F80010D6
:10276000404601F00701B1420BD9016821F0070191
:1027700031430160006800F00700B04201D0012041
:10278000E6E72878400705D56068E96820F4E0604E
:10279000084360602878000706D56068296920F43E
:1027A000605040EAC100606000F05CF86168084A6F
:1027B000C1F30311515CC840064908600020FFF7CF
:1027C00033FE0020C4E70000002002400010024059
:1027D0008C7000086C0000200F2202600C4A5368C5
:1027E00003F003034360536803F0F003836053680E
:1027F00003F4E063C36052684FF4E06303EAD2027B
:1028000002610448006800F007000860704700009B
:10281000001002400020024001480068704700009C
:102820006C0000200448054900684968044AC1F367
:102830000221515CC84070476C000020001002402B
:102840009C7000080448054900684968044AC1F3BF
:10285000C221515CC84070476C000020001002404B
:102860009C70000812A185B00FC98DE80F0014A05C
:10287000144A006804905168134801F00C03042BBB
:1028800010D0082B0ED1C1F38343C9031DF80300F8
:102890000AD5516804AAC1F34041515C0A4A504329
:1028A000B0FBF1F005B0704708494843FAE7000073
:1028B00002030405060708090A0B0C0D0E0F101081
:1028C000010200000010024000127A0000093D00E1
:1028D0002DE9F84F04460078B94DC00748D0686824
:1028E000C0F38100012807D06868C0F38100022886
:1028F00009D16868C00306D52868800338D56068A8
:1029000000286FD034E06068B0F5803F0BD010B184
:10291000B0F5A02F11D0286820F4803028602868F6
:1029200020F4802002E0286840F48030286060684D
:1029300088B1FFF759FD064609E0286840F4802079
:102940002860F0E7FFF750FD801B642875D82868E1
:102950008003F7D50CE0FFF747FD064605E000BF12
:10296000FFF742FD801B6428F0D828688003F7D465
:102970002078944E80074FF001094FF000083BD5B6
:10298000686810F00C0F07D06868C0F38100022857
:1029900009D16868C00306D42868800714D5206967
:1029A00001281FD110E02069B0B1C6F80090FFF7F0
:1029B0001BFD074605E000BFFFF716FDC01B022800
:1029C000C4D828688007F7D52868616920F0F80026
:1029D00040EAC10028600FE0C6F80080FFF704FD60
:1029E000074606E0E9E000BFFFF7FEFCC01B022837
:1029F00023D828688007F7D4207800072CD57248A0
:102A0000A169D9B1C0F80090FFF7EEFC074604E0D9
:102A1000FFF7EAFCC01B02280FD8686A8007F7D5C9
:102A20006A484FF4FA510068B0FBF1F0009000BF23
:102A30000098411E0091FAD20EE080E0C0F80080BC
:102A4000FFF7D2FC074604E0FFF7CEFCC01B0228CC
:102A500075D8686A8007F7D42078400760D5E869A0
:102A60000027C00008D4E86940F08050E861E869B8
:102A7000012700F08050009055480168C90513D423
:102A80000168834641F480710160FFF7ADFC824626
:102A900006E000BFFFF7A8FCA0EB0A0064284ED8B0
:102AA000DBF80000C005F5D5E06801280AD008B1C0
:102AB000052813D0286A20F001002862286A20F037
:102AC000040002E0286A40F001002862E06841F258
:102AD000883B98B1FFF788FC82460BE0286A40F0FB
:102AE00004002862EEE700BFFFF77EFCA0EB0A01BE
:102AF00059455AD8286A8007F6D50CE0FFF774FCD0
:102B0000824605E0FFF770FCA0EB0A0159454CD85E
:102B1000286A8007F6D41FB1E86920F08050E86188
:102B2000E06988B36968C1F38101022945D00228B0
:102B3000C6F8608004D0FFF757FC044638E034E064
:102B4000FFF752FC074604E0FFF74EFCC01B0228CB
:102B50002BD828688001F7D4206AB0F5803F05D1D2
:102B60006868A16820F4003008436860D4E908016F
:102B70000843696821F4741108436860C6F86090DE
:102B8000FFF732FC044606E015E000BFFFF72CFC1F
:102B9000001B022809D828688001F7D50BE000BF88
:102BA000FFF722FC001B022802D90320BDE8F88FA2
:102BB00028688001F4D40020F8E70120F6E700003F
:102BC0000010024000004242800442426C0000209B
:102BD000007000404FF0E0210428086903D020F085
:102BE00004000861704740F00400FAE710B5401E89
:102BF000B0F1807F01D3012010BD4FF0E02460616F
:102C00000F21601700F0BEFC0020A06107202061AA
:102C1000002010BD7047704730B590F83C20012A65
:102C200020D0012280F83C20022380F83D30036848
:102C30005C6824F070045C6003685C680D682C4379
:102C40005C6003689C6824F080049C6003689C6856
:102C500049680C439C6080F83D20002180F83C10BE
:102C6000084630BD022030BD10B5040003D094F8F2
:102C70003D0010B107E0012010BD002084F83C00A9
:102C8000204600F00DF8022084F83D00211D206848
:102C900000F078FD012084F83D00002010BD000008
:102CA00008B501681048B1F1804F14D00F4A914225
:102CB00019D1C16941F00201C161C069002200F06F
:102CC0000200009005211D20FFF734FCBDE80840FC
:102CD0001D20FFF723BCC16941F00101C161C0693A
:102CE00000F00100009008BD001002400004004008
:102CF0000168CA6842F00102CA600068016841F0D8
:102D0000010101600020704770B5044690F83C0056
:102D1000012817D0012584F83C50022084F83D009A
:102D20002068826822F0770222F47F42826008687D
:102D3000502837D00DDC202859D005DC88B3102866
:102D400041D151E0022070BD302853D040283AD103
:102D50003FE060282ED070280BD0B0F5805F03D004
:102D6000B0F5005F2FD110E02068816821F00701E5
:102D700015E0CB68D1E90121206800F044FD21680D
:102D8000886840F0770088601DE0CB68D1E90121B8
:102D9000206800F038FD2068816841F4804181603E
:102DA00011E01EE0CA684968206800F0E1FD50218A
:102DB000206806E0CA684968206800F0EAFD6021E2
:102DC000206800F02AFD84F83D50002084F83C0083
:102DD00070BDCA684968206800F0CAFD40212068BB
:102DE000EFE700212068ECE710212068E9E72021C7
:102DF0002068E6E730212068E3E7704770B50446B5
:102E0000006801694FF00005C943890715D4C168FE
:102E1000C943890711D4E91E016101202077206888
:102E200080698007204602D0FFF7E7FF04E000F04A
:102E3000B7F8204600F039F9257720680169C943C1
:102E4000490717D4C168C943490713D46FF0040177
:102E50000161022020772068806910F4407F2046BD
:102E600002D0FFF7CAFF04E000F09AF8204600F015
:102E70001CF9257720680169C943090716D4C16880
:102E8000C943090712D46FF00801016104202077BB
:102E90002068C0698007204602D0FFF7AEFF04E03B
:102EA00000F07EF8204600F000F9257720680169DF
:102EB000C943C90617D4C168C943C90613D46FF002
:102EC00010010161082020772068C06910F4407F5C
:102ED000204602D0FFF791FF04E000F061F82046A1
:102EE00000F0E3F8257720680169C943C90708D1D4
:102EF000C168C943C90704D1891E0161204600F099
:102F0000EDF820680169C943090609D4C168C943BD
:102F1000090605D46FF0800101612046FFF77AFEB3
:102F200020680169C943490609D4C168C9434906F3
:102F300005D46FF040010161204600F0EBF82068F5
:102F40000169C94389060BD4C168C943890607D4FE
:102F50006FF0200101612046BDE87040FFF75BBEC5
:102F600070BD00001FB50068B0F1804F12D14FF462
:102F70000040009002200190039069460648FFF748
:102F80004FF90648416821F4407141F0E06141F495
:102F9000807141601FBD0000000801400000014039
:102FA000704770B5044690F83C000D4601280DD0DE
:102FB000012684F83C60022084F83D0042B1042AD6
:102FC00018D0082A2AD00C2A4DD139E0022070BD31
:102FD000206800F02BFC2068816941F008018161C4
:102FE0002068816921F004018161206881692A6972
:102FF000114311E0206800F041FC2068816941F430
:10300000006181612068816921F4806181612068AB
:1030100081692A6941EA0221816124E0206800F087
:1030200059FC2068C16941F00801C1612068C1698B
:1030300021F00401C1612068C1692A69114311E0CE
:10304000206800F073FC2068C16941F40061C1612F
:103050002068C16921F48061C1612068C1692A6961
:1030600041EA0221C16184F83D60002084F83C00FF
:1030700070BD10B5040003D094F83D0010B107E016
:10308000012010BD002084F83C00204600F00CF820
:10309000022084F83D00211D206800F073FB012010
:1030A00084F83D00002010BD7047704710B50446FD
:1030B0000068012200F09CFB07492068884203D188
:1030C000416C41F4004141642068016841F0010114
:1030D0000160002010BD0000002C014010B5044626
:1030E00000680849884201D1FFF784F90649206841
:1030F000884206D1BDE81040012204490448FEF789
:103100006BBE10BD002C0140000400408C0000206C
:10311000A81900207047704710F8391F40780843FD
:103120007047000070B5026804461068D1685369A2
:1031300010F00F0F50D003F0010501F490763543E5
:103140005DD0C20705D0CA0503D5E26B42F001028B
:10315000E263420705D5DA0703D0E26B42F00202D0
:10316000E263820705D5DA0703D0E26B42F004027E
:10317000E263020705D5DA0703D0E26B42F00802EA
:10318000E263E26B002A33D0800604D5880602D5BC
:10319000204600F026FC20684069E16BC0F38010F7
:1031A000090700D428B3204600F00DFC20684169CF
:1031B00049061AD5416921F040014161606BA0B117
:1031C0001B494163606BFEF7CBFE002810D0606B9B
:1031D000416BBDE870400847830610D58B060ED5BD
:1031E0002046BDE8704000F0FCBB2046FFF793FF8F
:1031F00070BD2046FFF78FFF0020E06370BD03061F
:1032000006D50B0604D52046BDE8704000F0ECBCA6
:103210004006F3D54806F1D5D168204621F040019B
:10322000D160202184F8391000F01FF970BD000032
:10323000B739000870B5040004D094F839000025AF
:1032400010B106E0012070BD84F83850204600F02F
:1032500023F8242084F839002068C16821F4005143
:10326000C160204600F008FC2068016921F490410B
:1032700001612068416921F02A0141612068C1682B
:1032800041F40051C160E563202084F8390084F8DE
:103290003A00002070BD000010B50068154986B0E6
:1032A000884225D11448816941F480418161806957
:1032B000124C00F4804004904FF400700090022003
:1032C00001900320039069462046FEF7A9FF0021E4
:1032D0002015CDE90001029169462046FEF7A0FFC6
:1032E000002205212520FFF725F92520FFF716F9F3
:1032F00006B010BD00380140001002400008014037
:1033000090F83A30202B22D1F9B1F2B190F8383050
:10331000012B1CD081628285C2850021C1632222DB
:1033200080F83A2080F838100168CA6842F4807248
:10333000CA6001684A6942F001024A610068C168D6
:1033400041F02001C1600020704701207047022039
:103350007047000070B5124C12492046227800696F
:1033600062B1202802DA0A54401C2061BDE8704096
:103370000C4801220A494038FFF7C2BF00250D540E
:103380002B462A460749606903F0ACF8012805D0AE
:1033900000231A4604A1A06903F0A4F82561E5E71B
:1033A00070000020981A0020425553590A0000006E
:1033B0002DE9F843044690F839001F4616460D469D
:1033C000202850D1A5B19EB194F8380001284AD0E8
:1033D000012084F838004FF00008C4F83C80212018
:1033E00084F83900FFF700F8A6848146E68426E0D9
:1033F0000120BDE8F883E08C401EE084A0684B46C5
:10340000B0F5805F4FF000024FF08001204600973A
:1034100003D000F01AFCE8B90DE000F016FCC8B9C2
:1034200028882168C0F308004860206908B16D1C35
:1034300005E0AD1C03E0216815F8010B4860E08C45
:103440000028D8D14B46002240212046009700F0AA
:10345000FCFB08B10320CCE7202084F8390084F875
:1034600038800020C5E70220C3E77047FEE7000070
:103470003EB50F4800240D498460C460446101607A
:10348000012505614FF460214460C161FEF7CCFB6A
:1034900000B1FEE705200094CDE9015069460448DB
:1034A000FEF72AFB002800D0FEE73EBD00240140C5
:1034B000A819002010B51C488EB04FF080410024A0
:1034C000C0E900144FF6FF71C0E902410461846154
:1034D000FFF7CAFB00B1FEE74FF48050079007A941
:1034E0001148FFF711FC00B1FEE70F48FFF7C1FDDF
:1034F00000B1FEE70B940BA90B480C94FFF78CFB73
:1035000000B1FEE76020CDE9000402940022694684
:1035100005480494FFF745FD00B1FEE70248FFF7B8
:1035200021FD0EB010BD0000D819002010B51348C1
:1035300086B0114901604FF448710024C0E90114BC
:103540000A21C0E903148461FFF78EFB00B1FEE796
:103550004FF48050009069460848FFF7D5FB00B152
:10356000FEE7049404A905480594FFF755FB0028DD
:1035700000D0FEE706B010BD00040040181A00207D
:10358000FEE770470907090E002806DA00F00F0071
:1035900000F1E02080F8141D704700F1E02080F871
:1035A0000014704700212048FFF780FD1E4840307E
:1035B000FFF79EFB1D4C00261B4DDFF874906670D4
:1035C0004FF4004840F2DE37E43517488030FFF70B
:1035D000A3FD202805D11448012214498030FFF7AB
:1035E0008FFE286808B1012200E0002241464846CB
:1035F000FEF7F4FEA86930B100231A460D49A06910
:1036000002F070FFAE61607828B10A48E1691C38A9
:1036100002F038F866706869A0F10A01B942D4D89E
:1036200005490860D1E70000D8190020700000208B
:10363000000C0140D81A00202C0400400B4C8AB02A
:1036400000231A466946606902F052FE0128F7D14C
:1036500069460748FEF754F90028F1D000231A46BE
:1036600004A1A06902F03EFFEAE70000700000201C
:10367000BC1A00204F4B0A00000000008AB00C4D1D
:103680006C4600231A466946A86902F031FE0128FB
:10369000F7D102E0401C212802DA215C0029F9D18F
:1036A00082B2642369460348FFF782FEE9E700001F
:1036B00070000020581A002002F015B930B593B000
:1036C0000120022504900095102000240590079405
:1036D0006846FFF7FDF800B1FEE70F20CDE90A04C8
:1036E0000C940D9400210AA80E94FEF7CBFF00B1B4
:1036F000FEE70FA80F951194FEF74EFF00B1FEE70D
:10370000FFF78AF84FF47A71B0FBF1F0FFF76EFA29
:103710000420FFF75FFA00220F21501EFEF70AFF78
:1037200013B030BD0D48016841F0010101604168EE
:103730000B4A1140416001680A4A1140016001686A
:1037400021F480210160416821F4FE0141604FF4C1
:103750001F0181600449C0030860704700100240E7
:103760000000FFF8FFFFF6FE08ED00E00148FFF75C
:1037700045BB0000681900200148FFF73FBB00006F
:10378000181A0020F0B50268164B174C174D4FF071
:103790008047984205D0B84203D0A04201D0A84249
:1037A00003D122F070064A683243984205D0B842ED
:1037B00003D0A04201D0A84203D122F44074CA68C9
:1037C000224322F080044A69224302608A68C2626E
:1037D0000A688262984201D109690163012141614D
:1037E000F0BD0000002C0140000400400008004033
:1037F00010B50123046A8B409C430462036A8A402B
:103800001343036210BD10B5846842EA032224F416
:103810007F440A432243826010BD826822F0700216
:103820000A4342F0070181607047000030B5026A28
:1038300022F001020262026A4368846924F073057F
:103840000C682C4322F002058A682A430A4DA842DC
:103850000BD122F00805CA6823F440732A434D694E
:1038600022F004021D438B692B4343608461496845
:103870004163026230BD0000002C014030B5026A95
:1038800022F010020262026A436884690D6824F41F
:10389000E64444EA05248D6822F0200242EA05123B
:1038A0000B4DA8420ED1CD6822F0800242EA0512EB
:1038B0004D6923F4406343EA85038D6922F0400299
:1038C00043EA85034360846149688163026230BDD5
:1038D000002C014030B5026A22F480720262036A51
:1038E0004268C46923F4007324F073050C682C4308
:1038F0008D6843EA05230C4DA8420ED1CD6823F410
:10390000006343EA05234D6922F4405242EA05125E
:103910008D6923F4806342EA05124260C4614968FC
:10392000C163036230BD0000002C014030B5026A63
:1039300022F480520262046A4268C3690D6823F46B
:10394000E64343EA05238D6824F4005444EA053431
:10395000064DA84204D14D6922F4804242EA851204
:103960004260C36149680164046230BD002C0140BB
:1039700010B5036A046A24F001040462846924F027
:10398000F00444EA021423F00A020A43846102624A
:1039900010BD10B5036A23F0100303628369046A43
:1039A00023F4704343EA023224F0A00343EA0111F6
:1039B0008261016210BD10B5406A0021C185C184D9
:1039C000FFF7A9FB10BD0168CA6822F49072CA60B3
:1039D00001684A6922F001024A61202180F83A1008
:1039E000704710B590F83A10222901D0022010BD7E
:1039F0008168B1F5805F11D00169002901681FD08D
:103A0000496801F07F03816A4A1C82620B70C18D94
:103A1000491E0904090CC18518D02BE00269816A8E
:103A2000002A0268526805D0D2B20A80816A491C15
:103A30008162ECE7C2F308020A80816A891CF7E719
:103A40004A68816A4B1C83620A70E0E70168CA68B1
:103A500022F02002CA600168CA6822F48072CA603B
:103A600001684A6922F001024A61202180F83A1077
:103A7000FFF770FC002010BD2DE9F04104460068FE
:103A80000169E26821F44051114301612169A06894
:103A90000843616908432168CA6841F20C639A438C
:103AA0000243CA6020684169A26921F44071114350
:103AB00041614C4920686425322688423CD1FEF79A
:103AC000C1FE00EBC00101EB001061688900B0FB92
:103AD000F1F7FEF7B7FE00EBC00101EB00106168E3
:103AE000B0468900B0FBF1F0B0FBF5F06FF01801C3
:103AF000484307EB800106EB0110B0FBF5F000F046
:103B0000F006FEF79FFE00EBC00101EB00106168BC
:103B10008900B0FBF1F0B0FBF5F006EB0016FEF704
:103B200091FE00EBC00101EB001061688900B0FB61
:103B3000F1F7FEF787FE3BE0FEF774FE00EBC001F5
:103B400001EB001061688900B0FBF1F7FEF76AFE37
:103B500000EBC00101EB00106168B0468900B0FBCA
:103B6000F1F0B0FBF5F06FF01801484307EB80016E
:103B700006EB0110B0FBF5F000F0F006FEF752FE88
:103B800000EBC00101EB001061688900B0FBF1F0AF
:103B9000B0FBF5F006EB0016FEF744FE00EBC001AB
:103BA00001EB001061688900B0FBF1F7FEF73AFE07
:103BB00000EBC00101EB001061688900B0FBF1F07F
:103BC000B0FBF5F06FF01801484307EB800108EBFC
:103BD0000110B0FBF5F0216800F00F003044886060
:103BE000BDE8F0810038014090F83910212901D05A
:103BF000022070478168B1F5805F016A0BD04A1CD2
:103C00000262026809785160C18C491E0904090CDE
:103C1000C1840ED017E009880268C1F30801516021
:103C200001690029016A02D0491C0162ECE7891C84
:103C3000FBE70168CA6822F08002CA600068C168B8
:103C400041F04001C160002070472DE9F0419846E5
:103C500017460E460446069D1DE0681C1BD02DB17C
:103C6000FEF7C2FBA0EB0800A84214D92068C16887
:103C700021F4D071C1602068416921F001014161E6
:103C8000202084F8390084F83A00002084F83800B5
:103C90000320BDE8F0812068006836EA000004D007
:103CA0000020B842D9D00020F3E70120F9E7000056
:103CB0000148FFF737BA0000581A0020FEE7FEE778
:103CC00070B505460C46084602F0E4FE28B11EE039
:103CD00001220021204602F0BBFF0021204603F014
:103CE0008DF900782028F3D007E02068012250F8F1
:103CF000041C2046491E02F0ABFF206850F8041C4B
:103D00002046491E03F07AF900782028EDD021469C
:103D10002846BDE8704003F005B900001FB51C46F9
:103D200000F044FA0449496804B0204610BDAFF3DE
:103D30000080AFF30080F7E7D800002013B500241F
:103D4000012000F031FF0446204600F025FF4FF02F
:103D5000FF301CBDAFF30080AFF30080F4E700003C
:103D600010B5044602F096FE50B907A12068FCF792
:103D70007FFA216851F8041C814203D9401C01D00C
:103D8000002010BD012010BD3031323334353637BC
:103D9000383900002DE9F0411F4690460D000646D7
:103DA00001D00C4600E040241EB9204600F0F8FE89
:103DB00006463B464246214600F02CFF002802DA28
:103DC0000020307010E0844202DA00F1010402E0C9
:103DD0000AD14FEA44041DB14FF00000BDE8F08164
:103DE000304600F0D5FEE0E73046F7E72DE9FF4F1B
:103DF000484D002789B028689B469246002857D135
:103E000045A0002000BF040001D105F10C042046AC
:103E10003A21FCF7E9FC68B13E4A00F8017B121D2B
:103E200040A1FCF7F1FC012802D16868002801DC00
:103E3000012068603C4914208946084600BF0600FE
:103E40001BD04FF40070C6E901073848F7603060B6
:103E500006F1100807A8AFF300800246344904A811
:103E600003F03CF80146404603F05CF8A0F1100670
:103E700004A803F076F82F4830602B4E06A8AFF365
:103E8000008002462146684603F028F8074601A84C
:103E900000F012FE024630683946C3683046984743
:103EA000A86001A800F018FE684603F05AF82C60DC
:103EB000AC68601C26D06F680DF108081A4E554694
:103EC00005A8AFF30080024615A103A803F006F889
:103ED000CDE9005030683B462246056931464046F0
:103EE000A84703A803F03DF8029A52F8040C60B109
:103EF000DDE909015B46FFF74DFF044602A803F028
:103F000030F820460DB0BDE8F08F02A803F029F884
:103F10000020F7E790000020525753544445525276
:103F20000000000025640000401B0020CC73000846
:103F30008F7400085C7400080FB47FB5144D2A68B4
:103F4000002A04D00898032804DC002190477FBC95
:103F50005DF814FB09AE69460820084600BF18B199
:103F600000F0C8FB044600E00024324620460899D1
:103F700000F07EFB206881682046884701462A6859
:103F8000089890472068016820468847DFE70000CE
:103F9000CC00002013B5002400F006FE044614B93E
:103FA0000320FFF7C9FF20461CBDAFF30080AFF32D
:103FB0000080F4E700F0F0BD704700002DE9FC47F9
:103FC00007464FF00008C7F800809A46894600F17E
:103FD0000805C0F804801400464608D0B4F1804FAC
:103FE00001D3AFF30080A00000F0DAFD00E0002074
:103FF000C5E9000403E02868641E40F82460002C32
:10400000F9D1A5F10804C5F80880C5F80C80C4E909
:10401000068AB9F100000AD0FCF716F9401C0546E3
:1040200000F0BEFD2A464946FCF75DFDA06106276B
:1040300001A8AFF300800146684602F06BFF82469C
:104040003946174B174A042000F050FE6568804639
:10405000062D00D33D46C146266806E03146484657
:1040600002F0ACFF09F10409361D206800EB850061
:10407000B042F3D105E008EB850051466D1C02F01B
:104080009DFFBD42F7D306492068FCF729FBC4E930
:104090000087684602F065FF2046BDE8FC87000007
:1040A000636F0008BD17000810B50446806900F072
:1040B0006FFD04F1080002F087FC083802F092FC62
:1040C00010BD2DE9F04104460D461646104600216C
:1040D0002260002000BF606048B1FCF7B5F8401CCA
:1040E00000F05EFD07466168FCF775FB67602946D6
:1040F0003046002000BF2046BDE8F08110B5416881
:10410000044629B12068002000BF606800F040FD2F
:10411000204610BD0C0008D00A460DA1104800F042
:1041200057FD204600F034FD09E050B101280AD0C7
:1041300002280AD00BA206A1094800F049FDAFF3FE
:1041400000800AA2F7E70CA2F5E711A2F3E700004E
:10415000457863657074696F6E3A2025732E0A0086
:10416000D0000020756E6B6E6F776E20657863658A
:104170007074696F6E000000756E657870656374A9
:10418000656420657863657074696F6E0000000077
:104190006261645F616C6C6F633A206F7574206F4D
:1041A00066206D656D6F72790000000010B50A49D8
:1041B00004460020D1E9003200E0401C824204D9CC
:1041C00053F8201009B1A142F7D153F8201000296B
:1041D00000D1104610BD0000D80000204068704794
:1041E0002DE9FC410D46174601684FF0FF340622C9
:1041F0006846FFF766FF21462868FFF79FFD0646E1
:10420000401C12D000F0A6FC0546D5E9004104EBA5
:10421000C100A0420FD12846491C02F0EDFBD5E9B0
:10422000000100EBC104083C0AE06846FFF766FFA6
:104230002046BDE8FC812268521C01D00834E8E722
:104240003946201D266000F057FC2868201AC4104B
:10425000EBE710B50C4600F07DFC4168A14204DD9F
:10426000006800EBC400001D10BDBDE8104000F068
:10427000EBBBF8B51C4615460E4600F06BFC4168DA
:10428000B1420EDD006850F83600411C09D0002113
:1042900000916B4622462946FFF740FD6946884259
:1042A00000D10020F8BD406930F81200084000D06D
:1042B000012070472DE9F84F0646006889461D46E3
:1042C0004169DDF828B09246294201D0002406E079
:1042D00000693749284201D0CC6800E08C684FF073
:1042E000000884B1D9F80070E068B84207D86A467F
:1042F000791C04F10800CDF8008002F03AFBA068B8
:1043000050F82770F7BBBAF1000F02D10420FFF775
:1043100013FE84B1D9F80070E068B84207D86A4645
:10432000791C04F10800CDF8008002F022FBA0689F
:1043300050F8277037BB326800231EA1506928420D
:104340000ED00223102100200D4203D0116851F835
:10435000201009E04900401C0628F5D3164903E067
:104360001069284200D00123184600225B46984776
:1043700007463CB13068A04212D02146684600F0A2
:1043800085FB00E00CE04A463946684600F016F826
:10439000CDF80080E069401EE061684600F09CFBBB
:1043A0004A463946304600F009F83846BDE8F88FED
:1043B000B00000200000000088740008F8B5064630
:1043C000087A15460C46C0070FD1286820B917494E
:1043D0000868401C086028602068314682682046D2
:1043E0009047A06840F00100A06030682D68C06868
:1043F000A84207D80020009030686A46691C08303F
:1044000002F0B7FA3068806850F8250030B1C16812
:10441000491EC16002D1016849688847E068401CB4
:10442000E0603068806840F82540F8BDF800002062
:104430007CB5054608680C46806948B16846AFF30C
:104440000080024620688169284602F047FD7CBD55
:1044500001A8AFF30080024600A1F5E72A000000A2
:1044600010B50446FCF73FFB204610BD7CB5044662
:104470002DA1FCF759FBE8B32CA12046FCF754FB17
:10448000C0B34FF4007000F08BFB054602222146BA
:104490006846FFF716FE0024FCF718FB06464FF4AB
:1044A000807330680021005D10F0010F00D0012101
:1044B00010F03E0F01D041F0020110F0400F01D08A
:1044C00041F0040110F0100F01D041F0080110F08C
:1044D000080F01D041F0100110F0980F01D041F009
:1044E000200120281DD000220AB141F0400110F027
:1044F000020F00E013E001D041F0800180EA80006B
:1045000010F0800F01D041F4807125F81410641C64
:104510009C42C6D16846FFF7F1FD28467CBD0548A0
:104520007CBD0122E0E7000043000000504F5349EA
:10453000580000003C7100082DE9FC410646154674
:104540000C460846FFF792FF01462B4600223046F4
:1045500000F086F93E490160064640693D498842BF
:1045600073D001203076022221466846FFF7A9FD6C
:104570000024FF25E2B210213046FFF794FE38B93F
:1045800009E0EAB210213046FFF78DFE30B96D1E0A
:10459000A542F6D802E0641CAC42EBD3C6E907455D
:1045A000F76A18E0A4F16100192810D8E2B21021CE
:1045B0003046FFF778FE50B1A4F1200808F0FF0262
:1045C00008213046FFF76FFE08B1404600E0204664
:1045D00007F8010B641CAC42E4D90024FF25E2B2C9
:1045E00008213046FFF75FFE38B909E0EAB208213A
:1045F0003046FFF758FE30B96D1EA542F6D802E0EE
:10460000641CAC42EBD3C6E90945376B18E0A4F152
:104610004100192810D8E2B208213046FFF743FEC6
:1046200050B104F1200808F0FF0210213046FFF7D6
:104630003AFE08B1404600E0204607F8010B641C32
:10464000AC42E4D96846FFF759FD3046BDE8FC812D
:10465000E07300083C71000810B500F004F8BDE8F4
:10466000104000F099BA10B500F08EF910BD0000AE
:10467000F7B51746002413460D4606460A4621465E
:104680002046FFF7B3FB04000DD1002D01DB172DF1
:1046900000D30025164800213B4650F82520084647
:1046A000FFF778FB04467068B8B1FBF7CDFD05460F
:1046B0002046FBF7C9FD2844401C00F071FA7168E0
:1046C000FCF789F82146FCF77AF80546706800F097
:1046D0005FFA204600F05CFA2C4674603046FEBD5E
:1046E000AFF30080204600F053FAAFF30080F5E707
:1046F000E070000810B500F027FA024901600021BF
:10470000416010BD1474000810B5044604482060D0
:10471000606800F03DFA2046AFF3008010BD000055
:104720001474000810B502F01CFC10BD10B504464E
:104730004FF0FF30206000F087F90146201D00F0A7
:10474000B5F9001F10BD10B5001D00F0C5F9001F20
:1047500010BD10B5044601C92060201D00F0CCF941
:10476000204610BD2DE9FE43064602A8FFF760FE75
:10477000022268460299FFF7A4FC02A802F0F1FBAE
:104780000024FF25E2B210213046FFF78CFD38B936
:1047900009E0EAB210213046FFF785FD30B96D1E01
:1047A000A542F6D802E0641CAC42EBD3C6E907454B
:1047B000F76A18E0A4F16100192810D8E2B21021BC
:1047C0003046FFF770FD50B1A4F1200808F0FF0259
:1047D00008213046FFF767FD08B1404600E020465B
:1047E00007F8010B641CAC42E4D90024FF25E2B2B7
:1047F00008213046FFF757FD38B909E0EAB2082131
:104800003046FFF750FD30B96D1EA542F6D802E0E4
:10481000641CAC42EBD3C6E90945376B18E0A4F140
:104820004100192810D8E2B208213046FFF73BFDBD
:1048300050B104F1200808F0FF0210213046FFF7C4
:1048400032FD08B1404600E0204607F8010B641C29
:10485000AC42E4D96846FFF751FCBDE8FE83000096
:104860002DE9F0410646202070600020C6E90203D1
:104870003F4B33607161327611B93E4971613076D8
:104880000024FF25E2B210213046FFF70CFD38B9B5
:1048900009E0EAB210213046FFF705FD30B96D1E80
:1048A000A542F6D802E0641CAC42EBD3281BC6E953
:1048B0000745401C00F074F90746F06218E0A4F1C7
:1048C0006100192810D8E2B210213046FFF7EBFC46
:1048D00050B1A4F1200808F0FF0208213046FFF78C
:1048E000E2FC08B1404600E0204607F8010B641CDA
:1048F000AC42E4D90024FF25E2B208213046FFF79C
:10490000D2FC38B909E0EAB208213046FFF7CBFC07
:1049100030B96D1EA542F6D802E0641CAC42EBD360
:10492000281BC6E90945401C00F03AF907463063E8
:1049300018E0A4F14100192810D8E2B2082130464D
:10494000FFF7B1FC50B104F1200808F0FF0210217C
:104950003046FFF7A8FC08B1404600E0204607F8C3
:10496000010B641CAC42E4D93046BDE8F081000084
:10497000287400083C71000810B500F005F8BDE887
:10498000104000F009B9000010B504460848206046
:10499000207E10B1606900F0FBF8E06A00F0F8F8E2
:1049A000206B00F0F5F82046AFF3008010BD00004A
:1049B0002874000810B5AFF30080BDE8104000F087
:1049C000EBB8000070B51D4E3069002827D12020BB
:1049D00000F0EAF8044602230A2219A1FFF7EEFAD2
:1049E00000241025B06008E0B1680868896900EB10
:1049F000840002F0BDFA6D00641C15F47C7FF3D1D5
:104A0000202000F0D1F8044601230A220DA1FFF76F
:104A1000D5FA4FF47C71F0600161B068306170BD0F
:104A2000AFF30080B06818B1FFF73EFB00F0B4F8B8
:104A300000203061B060AFF3008070BDB000002096
:104A4000430000000000000010B50D4C206908B9BB
:104A5000FFF7B8FF2078C0070FD1094800F050F9E0
:104A600058B10748A168001D00F010F8054A064932
:104A7000FCF768FC0248AFF300800148001D10BD40
:104A8000B000002000000008D94A000810B5044614
:104A900001600548006908B9FFF794FF2168C869FB
:104AA000401CC861204610BDB000002009680160AC
:104AB000CA69521CCA61704770B5064C0546206829
:104AC00008B9FFF77FFF21682960C869401CC861E9
:104AD000284670BDC000002010B50446006848B1EB
:104AE000C169491EC16105D1206818B1FFF7DCFA20
:104AF00000F052F8204610BD70B50D46044601681E
:104B0000286881420FD0C169491CC1612068C16910
:104B1000491EC16105D1206818B1FFF7C5FA00F040
:104B20003BF828682060204670BD10B500F004F8FE
:104B3000BDE8104000F030B810B51030FFF7F2FDBE
:104B40001038AFF3008010BD0149016070470000CC
:104B50007C7400080A4810B50078C0070ED10848D8
:104B600000F0CEF850B107480021074A01604160CB
:104B70000649FCF7E7FB0248AFF30080014810BD8F
:104B8000FC0000200001002000000008816A0008ED
:104B900010B500F001F810BD10B500F0ABFD10BD70
:104BA00010B500F001F810BD10B5040007D10124C4
:104BB00005E0FCF7BDFB006800B9044880472046CB
:104BC00000F056FE0028F4D010BD0000390A00089D
:104BD0000FB4024610B504A9034B039800F0AAF9DC
:104BE00010BC5DF814FB0000E15600080FB4084B40
:104BF00010B504A902AA039800F09CF9044602A982
:104C0000002000F039FD204610BC5DF814FB0000C8
:104C1000795600087CB5044600201D46164600293A
:104C20000BD0491ECDE90041044B6A462946304667
:104C300000F080F9009A002111707CBD63560008D5
:104C40002DE9FF4D82B08B46824601200F99904698
:104C50000AFB0BF6009006B901261446301911B173
:104C6000884720B101E0FFF79BFF044400E00024E7
:104C700084B1B8F1000F01D044E902BA059848B1F7
:104C80000025274604E00599384688475F446D1C97
:104C90005545F8DB06B02046BDE8F08DAFF3008047
:104CA0000E9828B103465A4629463846FCF768FD57
:104CB000009860B1109AA4EB080006EB0801904739
:104CC00005E0AFF30080FBF7B9FEAFF30080FCF71F
:104CD00050FB000000487047D4000020002804D09A
:104CE000A0F108020CCAFCF745BB704738B50C466A
:104CF0000093134601460822204600F009F838BD0B
:104D0000016809B100207047012101600846704721
:104D1000FEB5044E089C00258DE87000FFF790FF5B
:104D2000FEBD0000914B000802E008C8121F08C138
:104D3000002AFAD170477047002001E001C1121F1C
:104D4000002AFBD170470000024800210160001DCD
:104D500001607047C400002070B50A4D022400268F
:104D60000820FFF71DFFC5E900042868641E40F80D
:104D70002460FAD12846BDE87040034A0349FCF795
:104D8000E1BA0000D800002000000008D769000840
:104D9000024800210160001D01607047A80000204A
:104DA0002DE9FF5F82B00021DDE90430020DDDF85E
:104DB00040B0034318D044F61050A2F2FF324243F1
:104DC0001514119801281FD0A5EB0B00401C5FEAB9
:104DD000000A4FF000064E4FDFF83891B0465046BB
:104DE00015D5CAF1000413E0119801244AA3012843
:104DF00001D16FEA0B010298119AC0E90031C0E9B4
:104E0000024206B0BDE8F09FCBF10000DFE70446A8
:104E10000021404A491842EB0450CDE9001012E04D
:104E2000E00707D032463B4640464946FBF720FBA9
:104E30008046894632463B4610461946FBF718FB2A
:104E400006460F466410002CEAD1DDE90401DDE9D5
:104E50000023BAF1000F06DAFBF70AFB42464B4685
:104E6000FBF706FB05E0FBF775FB42464B46FBF7FD
:104E700071FB04460E460022284BFBF7C5FD03D804
:104E80004FF0FF30014607E00022254B2046314617
:104E9000FBF747FAFBF7A0FD102409E0002C0ADB22
:104EA0000A220023FBF739FC039B30321A55641E9B
:104EB00050EA0102F2D1641C039AC4F111031444B4
:104EC000119A012A03D0012208430DD10AE00843B8
:104ED00004D000204FF0110B119072E7A3EB0B05EB
:104EE0006D1E0DE05B4504DD4FF0000205F101058C
:104EF00004E003DA4FF00002A5F10105002AECD02E
:104F000002981199C0E90231C0E9004579E7000033
:104F1000000014400000F03F300000000000F043AB
:104F20000000E03F30380A2801D2012070470020FD
:104F3000704700002DE9FF4F95B09B468946064615
:104F400000250FE2252877D100242746F84A0121C1
:104F5000059400E0044316F8013F203B01FA03F0FA
:104F60001042F7D130782A2811D06FF02F03307813
:104F7000A0F13002092A16D8059A44F0020402EB87
:104F8000820203EB42021044761C0590EFE759F8C9
:104F9000042B0592002A03DA504244F40054059091
:104FA00044F00204761C30782E2816D116F8010F32
:104FB00044F004042A280DD06FF02F023078A0F1BD
:104FC0003003092B09D807EB870302EB4303C7180B
:104FD000761CF3E759F8047B761C30786C280FD0E8
:104FE00006DC4C2817D068280DD06A2814D104E0BC
:104FF000742810D07A280FD10DE044F400140AE090
:1050000044F4801401E044F440147278824202D1E6
:1050100004F58014761C761C307866280BD013DCDF
:10502000582877D009DC002875D04528F6D04628C6
:10503000F4D047281AD19DE118E0632835D06428C0
:1050400079D0652812D195E1702873D008DC6728E3
:10505000F1D069286FD06E280DD06F2806D1B5E049
:1050600073282CD0752875D0782874D05A46179993
:1050700090476D1C75E1C4F30250022809D0032843
:105080000DD0D9F8001004280DD00D6009F10409E5
:1050900067E1D9F80010EA17C1E90052F6E7D9F83C
:1050A00000100D80F2E70D70F0E719F8041B8DF881
:1050B000001000208DF80100EA46012003E059F8B5
:1050C00004AB4FF0FF3061074FF0000102D40DE058
:1050D00008F101018846B9420FDA8045F8DB1AF879
:1050E00008100029F4D108E008F101018846814246
:1050F000FADB1AF808100029F6D105985B46A0EBF8
:10510000080721463846179A00F094FA284400EB25
:10511000080507E04DE029E10DE01AF8010B5A46B9
:1051200017999047B8F10108F7D25B4621463846F7
:10513000179A13E142E00A220092C4F302524FF0A0
:10514000000A022A08D059F804CB032A4FEAEC716E
:105150000AD00DE029E02AE009F1070121F0070259
:10516000F2E802C1914609E00FFA8CFC4FEAEC71BB
:10517000042A03D14FFA8CFC4FEAEC71002907DABC
:105180000A460021DCF1000C61EB02012D2202E055
:10519000220504D52B228DF80420012203E0E2072A
:1051A00001D02022F7E7904659E00A2102E01022C0
:1051B0000DE010214FF0000A00910BE010224FF09B
:1051C000000A44F004040827009203E008224FF08C
:1051D000000A0092C4F30252022A05D059F804CB07
:1051E0000021032A08D009E009F1070121F0070294
:1051F000F2E802C1914605E01FFA8CFC042A01D1B5
:105200000CF0FF0C4FF00008220728D5702806D0BC
:10521000009B83F0100353EA0A0305D00EE04022FE
:105220008DF80420012208E05CEA010206D0302259
:105230008DF804208DF8050002229046009B83F033
:10524000080353EA0A030AD15CEA010201D16207AA
:1052500005D530228DF804204FF001087F1E582814
:1052600004D034A003900EA802900DE036A0F9E718
:1052700053466046009AFBF750FA84460398825CD6
:105280000298401E029002705CEA0100F0D1029880
:1052900006A9081A00F1200A600702D524F4803418
:1052A00000E00127574502DDA7EB0A0000E00020DF
:1052B00000EB0A01009005984144401A0590E00374
:1052C00006D45B462146179A059800F0B3F90544C9
:1052D000002706E001A85A46C05D179990476D1C4B
:1052E0007F1C4745F6DBE0030CD55B462146179A49
:1052F000059800F09FF9054404E030205A461799BC
:1053000090476D1C0099481E00900029F5DC08E0CC
:10531000029802995A460078491C029117999047C1
:105320006D1CBAF10001AAF1010AF1DC65E100008F
:10533000092801003031323334353637383961626B
:10534000636465660000000030313233343536372F
:1053500038394142434445460000000000F058F906
:105360000544761C307800287FF4ECAD19B028464F
:10537000BDE8F08F620700D4062709F1070222F08A
:10538000070CFCE80223E14603F000485FEA080C42
:1053900002D00FF2702C0DE05FEA045C02D50FF230
:1053A000682C07E05FEAC47C02D00FF2602C01E0B9
:1053B000AFF2700C4FF0FF3823F00043CDF850C02F
:1053C00065280CD006DC452809D046281DD0472882
:1053D0003DD13DE0662818D067287ED138E0002115
:1053E000112F01DB112000E0781CCDE9000106A996
:1053F0000EA8FFF7D5FCDDE90F010E9A03910021FD
:10540000009207F1010A04914DE04FF0004000972F
:10541000CDE9011006A90EA8FFF7C2FCDDE90F02D5
:1054200003920E9B11990022DDF80CA000930492C8
:1054300011B9791C00EB010AB7EB0A0004D4C0F1E2
:10544000FF3007F1010A0490AAEB0700019044E045
:10545000012F00DA01270021112F01DD112000E0CA
:105460003846CDE9000106A90EA8FFF799FCDDE951
:105470000F010E9A0391002104910092BA46210770
:105480000CD40399514500DA8A46BAF1010F05DDC3
:10549000009AAAF10101515C302908D0B84202DA21
:1054A00010F1040F06DA0121CDE9011015E0AAF18F
:1054B0000101E9E7002805DC049901440491AAEB05
:1054C000000102E0411C514500DD8A460499401A62
:1054D000401C01904FF000400290200704D4019836
:1054E000504501DBCDF8048000208DF84F00029874
:1054F0000DF14F07B0F1004F25D02B200E900298F0
:105500004FF0020800280CDA404202902D200E9045
:1055100007E00A210298FBF7EAF83031029007F819
:10552000011DB8F10001A8F10108F2DC0298002881
:10553000EFD1791E0E980870307800F0200040F00E
:10554000450007F8020D12A8C01B00F107081498C7
:10555000007800B1012000EB0A01019801EBE07135
:1055600005984144401A401E0590E00306D45B466E
:105570002146179A059800F05DF8054414980078C4
:1055800018B15A46179990476D1CE00324D55B4625
:105590002146179A059800F04DF805441CE0049840
:1055A000002807DBDDE90301884203DD0098405C49
:1055B000179901E0179930205A469047049805F151
:1055C0000105401C04900198401E019004D12E203A
:1055D0005A46179990476D1CBAF10001AAF1010AC9
:1055E000DDDC05E017F8010B5A46179990476D1C52
:1055F000B8F10001A8F10108F4DC5B462146179AD6
:105600000598ABE62D0000002B00000020000000F4
:105610002DE9F041044600251E461746880404D4AF
:1056200005E039462020B0476D1C641EF9D5284698
:10563000BDE8F0812DE9F041044600251E46904664
:10564000C80301D5302700E02027880404D505E0F1
:1056500041463846B0476D1C641EF9D52846BDE862
:10566000F0814A68002A06D00A68531C0B6010704B
:105670004868401E486070470A68531C0B601070F1
:105680007047000070B504460E46D4E9031081420D
:1056900001DAA06819E0FAF7CCFF0546A068FAF72E
:1056A000C8FF2946FAF7FFFDFAF7EBFF4FF0663225
:1056B000094BFAF7DDFE0022084BFAF74BFFFAF729
:1056C000F3FF60600020E060A0603044A060E0680C
:1056D000401CE06070BD000066660A4000FEAF40FE
:1056E00038B504468DF8000069460320ABBE20465D
:1056F00038BD000010B5002821D0114B0022001F3A
:10570000196803E0814203D80A4649680029F9D1A3
:1057100052B11368841A9C4204D100681844106086
:10572000104602E0506000E0186039B102680B1AC0
:10573000934203D10B681A4402604968416010BD6E
:10574000EC00002094B0FCF75DFEFDF7B7FF3F4C86
:10575000A06940F00400A061A06900F0040013906B
:10576000A06940F00800A061A069394E00F008006F
:105770004FF400451390002229463046FCF72EFED8
:105780000120CDE90F50022012900FA93046FCF7FE
:1057900047FD606940F0010060616069002200F02F
:1057A00001000F9005210B20FCF7C4FE0B20FCF735
:1057B000B5FEFDF75DFE284826490C2201604FF436
:1057C0001651416000218160C160C0E9041281610D
:1057D000C161FDF72FFD00B1FEE7FDF76BFEFDF7A0
:1057E000A5FE1D486430FCF75BF914221B4968468E
:1057F000FBF779F90021684600F07FF8184C17494B
:1058000014226060143105A8FBF76DF9002105A88A
:1058100000F073F81149A060142228310AA8FBF7A0
:1058200062F900210AA800F068F8E0600022212156
:10583000102000F039FD606100222121102000F0CD
:1058400033FDA06100F04AF8FEE7000000100240BE
:10585000000C014000380140581A0020A4700008D4
:105860007000002001460020842900D0C81C704729
:10587000F0B50B30154D20F007010024144A0FE05D
:1058800003688B420BD38B4205D95E1A43184768D5
:10589000C3E9006700E04368136002C004E0021D32
:1058A00010680028ECD12046002802D1286808B1F1
:1058B0000020F0BD064A07481060074A121A22F07D
:1058C0000702C0E9002401202860D7E7F00000208B
:1058D000EC0000206C1B0020681D002010B500F0BB
:1058E00029FC002010BD10B500F0BCFE012803D03B
:1058F000BDE8104000F0C2BC10BD3EB504460D46E8
:10590000B0F90800FFF7AEFF02A9CDE90001208A37
:105910002B4682B2D4E9001000F078FE012801D0B5
:1059200000203EBD02983EBD2DE9F041184C0F46C7
:105930000546E6682068001D00F0AAFA38B920681C
:1059400090F82C1001208840216981432161681C56
:1059500007D137B12168BDE8F0410E48091D00F0BC
:10596000CFBA20683544B5424560216805D2A06BA6
:10597000BDE8F041091D00F0ABBA606B091D00F0F5
:10598000A7FAA06A854200D2A562BDE8F0810000B6
:1059900018000020541900202DE9F041054600F0C0
:1059A000BBFA2E4CA068401CA06020682C4F10B1A0
:1059B000606940B32DE02560A068012829D1002648
:1059C00006EB860007EB800000F074FA761C072EC9
:1059D000F6D323488C3000F06DFA2148A03000F057
:1059E00069FA1F48B43000F065FA1D48C83000F06D
:1059F00061FA1B48DC3000F05DFA19488C306063B6
:105A00001430A06305E02068E96AC06A884200D8C3
:105A10002560606A401C6062E96A01202269884052
:105A20001043206101EB810007EB8000291D00F08D
:105A300067FA00F091FA606900280CD02068E96AE2
:105A4000C06A884207D207494FF080500860BFF310
:105A50004F8FBFF36F8FBDE8F0810000180000206A
:105A60007818002004ED00E070B5114E114C17E0DD
:105A700000F094FB3068B8B100F0ECFE00F04CFA96
:105A8000F068C568281D00F003FAA068401EA060F9
:105A90006068401E606000F05FFA284600F055F82C
:105AA00060680028E4D170BD00F0D4FEF8E7000083
:105AB000401900201800002030B4026C0B46002A68
:105AC0000BD0C1681144C1604468A14201D3016890
:105AD000C16030BC1846FBF706B830BC70472DE9F2
